{
  "contractName": "LightSensor",
  "abi": [
    {
      "inputs": [],
      "name": "isLightTurnedOn",
      "outputs": [
        {
          "internalType": "bool",
          "name": "",
          "type": "bool"
        }
      ],
      "stateMutability": "view",
      "type": "function"
    },
    {
      "inputs": [],
      "name": "turnLightOn",
      "outputs": [
        {
          "internalType": "bool",
          "name": "",
          "type": "bool"
        }
      ],
      "stateMutability": "nonpayable",
      "type": "function"
    },
    {
      "inputs": [],
      "name": "turnLightOff",
      "outputs": [
        {
          "internalType": "bool",
          "name": "",
          "type": "bool"
        }
      ],
      "stateMutability": "nonpayable",
      "type": "function"
    }
  ],
  "bytecode": "0x608060405234801561001057600080fd5b50610310806100206000396000f3fe608060405234801561001057600080fd5b50600436106100415760003560e01c8063297f2566146100465780639de4d68314610064578063c372526d14610082575b600080fd5b61004e6100a0565b60405161005b91906101d6565b60405180910390f35b61006c610122565b60405161007991906101d6565b60405180910390f35b61008a610138565b60405161009791906101d6565b60405180910390f35b600080151560008054906101000a900460ff161515146100f5576040517f08c379a00000000000000000000000000000000000000000000000000000000081526004016100ec9061024e565b60405180910390fd5b60016000806101000a81548160ff02191690831515021790555060008054906101000a900460ff16905090565b60008060009054906101000a900460ff16905090565b60006001151560008054906101000a900460ff1615151461018e576040517f08c379a0000000000000000000000000000000000000000000000000000000008152600401610185906102ba565b60405180910390fd5b60008060006101000a81548160ff02191690831515021790555060008054906101000a900460ff16905090565b60008115159050919050565b6101d0816101bb565b82525050565b60006020820190506101eb60008301846101c7565b92915050565b600082825260208201905092915050565b7f4c69676874206973204f4e210000000000000000000000000000000000000000600082015250565b6000610238600c836101f1565b915061024382610202565b602082019050919050565b600060208201905081810360008301526102678161022b565b9050919050565b7f4c69676874206973204f46462100000000000000000000000000000000000000600082015250565b60006102a4600d836101f1565b91506102af8261026e565b602082019050919050565b600060208201905081810360008301526102d381610297565b905091905056fea2646970667358221220f7b7cc8a745187a915697262dd1f623b5f4f786077785bcb65743862a0a9181364736f6c634300080e0033",
  "immutableReferences": {},
  "source": "// SPDX-License-Identifier: MIT\npragma solidity >=0.8.0 <0.9.0;\n\n// This is a simple example of a coin-like contract.\n// It is not standards compatible and cannot be expected to talk to other\n// coin/token contracts. If you want to create a standards-compliant\n// token, see: https://github.com/ConsenSys/Tokens. Cheers!\n\ncontract LightSensor {\n  bool LEDturnedOn;\n  address owner;\n  \n  modifier onlyOwner() {\n    require(msg.sender == owner);\n    _;\n  }\n\n  // Constructor\n  function isLightTurnedOn() public view returns(bool){\n     return LEDturnedOn;\n  }\n  function turnLightOn() external returns (bool){\n    require(LEDturnedOn == false, \"Light is ON!\");\n    LEDturnedOn = true;\n    return LEDturnedOn;\n  }\n  function turnLightOff() external returns (bool){\n    require(LEDturnedOn == true, \"Light is OFF!\");\n    LEDturnedOn = false;\n    return LEDturnedOn;\n  }\n}\n\n",
  "sourcePath": "/home/drareg/TFM/Projet/contracts/LightSensor.sol",
  "compiler": {
    "name": "solc",
    "version": "0.8.14+commit.80d49f37.Emscripten.clang"
  },
  "schemaVersion": "3.4.7",
  "updatedAt": "2022-05-28T12:17:26.707Z",
  "devdoc": {
    "kind": "dev",
    "methods": {},
    "version": 1
  },
  "userdoc": {
    "kind": "user",
    "methods": {},
    "version": 1
  }
}